:100000000C942A000C9447000C9447000C94470071
:100010000C9447000C9447000C9447000C94470044
:100020000C9447000C9447000C9447000C94470034
:100030000C9447000C9447000C9447000C94470024
:100040000C9452030C9447000C9447000C94470006
:100050000C94470011241FBECFE5D8E0DEBFCDBF12
:1000600010E0A0E6B0E0E0E0FEE002C005900D92F6
:10007000A439B107D9F710E0A4E9B0E001C01D929E
:10008000A63BB107E1F70E9473030C94FE060C94A3
:10009000000017B83E9A3D9A16B8359A86B1876027
:1000A00086B9339A10BE80B78F7180BF0895379894
:1000B00097B1987F982B97B9379A369A089510BAC6
:1000C00013BA16BA19BA11BA14BA17BA1ABA12BAB6
:1000D00015BA18BA1BBA08956830F8F48430F8F4E9
:1000E000E3E08E9FF0011124443651F421A981E010
:1000F00090E002C0880F991F6A95E2F7282B0CC088
:100100004A3079F421A981E090E002C0880F991F5C
:100110006A95E2F78095282321AB80E0089581E07D
:10012000089581E008956830F8F48430F8F4E3E04D
:100130008E9FF0011124413051F422A981E090E01A
:1001400002C0880F991F6A95E2F7282B0CC0442340
:1001500079F422A981E090E002C0880F991F6A9586
:10016000E2F78095282322AB80E0089581E008958E
:1001700081E00895843038F4E3E08E9FF00111248B
:1001800061AB80E0089581E00895843038F4E3E0C5
:100190008E9FF001112462AB80E0089581E0089504
:1001A0006830D8F48430D8F4E3E08E9FF001112455
:1001B00080A990E021E030E0062E02C0220F331F1C
:1001C0000A94E2F78223932302C0959587956A9556
:1001D000E2F7FA01808380E0089581E0089580E0ED
:1001E00008952F923F924F925F926F927F928F92DB
:1001F0009F92AF92BF92CF92DF92EF92FF920F93B6
:100200001F93CF93DF935B016C01EA013B014C012B
:1002100021E0E22EF12C012D112D9AE0292E312C16
:10022000412C512C12C0C401B301A20191010E94C2
:10023000DC0639014A01C801B7012AE030E040E09C
:1002400050E00E949D067B018C01611471048104C1
:10025000910449F7C801B7012AE030E040E050E0DE
:100260000E94DC0679018A0199248AE0282E312C2B
:10027000412C512C22C0C601B501A80197010E9452
:10028000DC06622E622F70E080E090E0A80197010A
:100290000E949D06A61AB70AC80AD90AFE01E90DEE
:1002A000F11D862D805D8083C801B701A2019101F7
:1002B0000E94DC0679018A019394A114B104C1045F
:1002C000D104C9F6E114F10401051105A1F6C90D27
:1002D000D11D18828FE59AEE0197F1F700C000005A
:1002E000DF91CF911F910F91FF90EF90DF90CF9012
:1002F000BF90AF909F908F907F906F905F904F9046
:100300003F902F900895FB0168EE73E00E94C806AD
:10031000605D60832EE2218364E670E00E94C8067F
:10032000605D62836AE070E00E94C806605D63837E
:10033000805D848315820895FB0164E60E94BC06FB
:10034000805D8083892F6AE00E94BC06805D818386
:10035000905D92831382089582E062E041E00E9402
:1003600093008FE19EE40197F1F700C0000082E066
:1003700062E040E00E9493008FE39CE90197F1F76F
:1003800000C0000008951F93182F682F607F80E041
:100390000E94C50082E060E041E00E94930082E09C
:1003A00061E040E00E9493000E94AC01612F6295E1
:1003B000607F80E00E94C5000E94AC011F910895FB
:1003C0001F93182F682F607F80E00E94C50082E095
:1003D00060E040E00E94930082E061E040E00E9423
:1003E00093000E94AC01612F6295607F80E00E94C3
:1003F000C5000E94AC011F9108958150860F0E9494
:10040000E0010895EF92FF921F93CF93DF93E82EC0
:10041000E7017E01F92EE70110E010C01F5F0E9486
:10042000C301103111F480EC06C0103239F481E0C0
:100430000E94E00180E861E00E94FD01899188232B
:1004400069F7DF91CF911F91FF90EF9008958FEFA3
:1004500096E7A1E081509040A040E1F700C0000085
:1004600080E06FEF0E94BA0082E06FEF0E94BA0056
:1004700082E062E040E00E94930083E30E94E0019A
:1004800082E30E94E00188E20E94E0018FE00E9486
:10049000E00181E00E94E001AFE3BCE91197F1F7D0
:1004A00000C000000895682F80E00E94C50082E02F
:1004B00060E041E00E94930082E061E040E00E9441
:1004C00093000E94AC010895FF920F931F93DF9356
:1004D000CF93CDB7DEB72A970FB6F894DEBF0FBE25
:1004E000CDBFF82EDE011196E0E6F0E08AE0019043
:1004F0000D928150E1F78F2D64E60E94BC068E01BB
:100500000F5F1F4FF801E80FF11D80810E94530219
:100510002AE08F2D622F0E94BC06F92E0E94BC0695
:10052000F801E90FF11D80810E945302F801EF0DDF
:10053000F11D80810E9453022A960FB6F894DEBF07
:100540000FBECDBFCF91DF911F910F91FF90089506
:10055000DF93CF930F92CDB7DEB764E60E94BC065F
:10056000805D99830E9453029981892F6AE00E94DD
:10057000BC06805D99830E9453029981892F805D1A
:100580000E9453020F90CF91DF9108951F93CF9354
:10059000DF9368EE73E00E94C806262F64E670E0E1
:1005A0000E94C806162FEC01822F805D0E94530224
:1005B0008EE20E945302812F805D0E945302CE0181
:1005C0006AE070E00E94C806182F862F805D0E94A6
:1005D0005302812F805D0E945302DF91CF911F91C2
:1005E0000895682F80E00E94C50082E060E040E04E
:1005F0000E94930082E061E040E00E9493000E942C
:10060000AC0108958150860F0E94F1020895EF9287
:10061000FF921F93CF93DF93E82EE7017E01F92E1F
:10062000E70110E010C01F5F0E945302103111F467
:1006300080EC06C0103239F481E00E94F10280E8BB
:1006400061E00E9402038991882369F7DF91CF91CD
:100650001F91FF90EF9008958FEF93EFA1E08150ED
:100660009040A040E1F700C0000082E06FEF0E94E0
:10067000BA0080E06FEF0E94BA0082E062E040E0E2
:100680000E94930088E30E94F1028CE00E94F10234
:1006900081E00E94F102AFE3BCE91197F1F700C0DD
:1006A000000008951F920F920FB60F9211248F939E
:1006B00081E0809394008F910F900FBE0F901F9058
:1006C000189583B38170809393002091920021301C
:1006D00039F4882329F490919D00922790939D00EE
:1006E0008093920008951F931092940010929D00A1
:1006F00081E0809393008093920010929E0010926C
:100700009F001ABA8EE084BB0E942C0378940E944A
:10071000490080E00E9457000E946103809194008C
:10072000882309F4EEC01092940010919D001130BE
:1007300009F064C082E00E94570065B170E0660F66
:10074000771F660F771F7093AB006093AA0080E05D
:1007500090E00E94840520E030E04FE754E40E94DE
:10076000F00420E030E040EA50E40E94160620E069
:1007700030E04AE754E40E941606609395007093B7
:100780009600809397009093980080919E00882314
:1007900019F510939E0010929F00A99AAA9881E0E3
:1007A0000E94F1028BE690E00E94070380EC0E9419
:1007B000F102609195007091960080919700909160
:1007C00098000E945805DC01CB010E94C60288E710
:1007D00090E00E94070395C080EC0E94F1026091B6
:1007E00095007091960080919700909198000E94DA
:1007F0005805DC01CB010E94C60283C0112309F019
:1008000080C081E00E94570065B170E0660F771FDD
:10081000660F771F7093AB006093AA0080E090E0B2
:100820000E94840520E030E04FE754E40E94F00489
:1008300020E030E040EA50E40E94160620E030E07C
:1008400040E05FE30E948B0420E030E048EC52E49B
:100850000E94160620E030E048E452E40E948C0436
:100860006093990070939A0080939B0090939C00F2
:1008700080919F00882311F581E080939F00109262
:100880009E00AA9AA9980E94F1028EE790E00E9429
:10089000070380EC0E94F1026091990070919A0028
:1008A00080919B0090919C000E945805862F0E9489
:1008B000A8028FE890E00E94070310C080EC0E941D
:1008C000F1026091990070919A0080919B00909143
:1008D0009C000E945805862F0E94A80260919900F2
:1008E00070919A0080919B0090919C0020E030E0F4
:1008F00040E752E40E941206181614F4AB9A01C0A5
:10090000AB988FEF91EEA4E081509040A040E1F7CA
:1009100000C0000001CF5058BB27AA270ED048C105
:1009200039D130F03ED120F031F49F3F11F41EF464
:100930002EC10EF4E095E7FB24C1E92F4AD180F3E4
:10094000BA17620773078407950718F071F49EF5CC
:1009500062C10EF4E0950B2EBA2FA02D0B01B90148
:1009600090010C01CA01A0011124FF27591B99F025
:10097000593F50F4503E68F11A16F040A22F232F31
:10098000342F4427585FF3CF469537952795A79581
:10099000F0405395C9F77EF41F16BA0B620B730B28
:1009A000840BBAF09150A1F0FF0FBB1F661F771F99
:1009B000881FC2F70EC0BA0F621F731F841F48F44E
:1009C000879577956795B795F7959E3F08F0B3CFD4
:1009D0009395880F08F09927EE0F979587950895BE
:1009E0000CD0E6C0DED040F0D5D030F021F45F3F2F
:1009F00019F0C7C0511110C1CAC0EBD098F39923A8
:100A0000C9F35523B1F3951B550BBB27AA276217D2
:100A10007307840738F09F5F5F4F220F331F441F17
:100A2000AA1FA9F333D00E2E3AF0E0E830D091504F
:100A30005040E695001CCAF729D0FE2F27D0660F3C
:100A4000771F881FBB1F261737074807AB07B0E87B
:100A500009F0BB0B802DBF01FF2793585F4F2AF091
:100A60009E3F510568F08DC0D7C05F3FECF3983EC4
:100A7000DCF3869577956795B795F7959F5FC9F7EE
:100A8000880F911D9695879597F90895E1E0660F77
:100A9000771F881FBB1F621773078407BA0720F0F0
:100AA000621B730B840BBA0BEE1F88F7E095089559
:100AB00098D088F09F5790F0B92F9927B751A0F0A0
:100AC000D1F0660F771F881F991F1AF0BA95C9F7E2
:100AD00012C0B13081F09FD0B1E008959CC0672F63
:100AE000782F8827B85F39F0B93FCCF38695779592
:100AF0006795B395D9F73EF490958095709561957B
:100B00007F4F8F4F9F4F0895E89409C097FB3EF4A5
:100B100090958095709561957F4F8F4F9F4F99234A
:100B2000A9F0F92F96E9BB279395F69587957795C8
:100B30006795B795F111F8CFFAF4BB0F11F460FF88
:100B40001BC06F5F7F4F8F4F9F4F16C0882311F0E0
:100B500096E911C0772321F09EE8872F762F05C0F4
:100B6000662371F096E8862F70E060E02AF09A958F
:100B7000660F771F881FDAF7880F9695879597F984
:100B8000089597F99F6780E870E060E008959FEF0F
:100B900080EC089500240A94161617061806090614
:100BA000089500240A9412161306140605060895E3
:100BB000092E0394000C11F4882352F0BB0F40F46B
:100BC000BF2B11F460FF04C06F5F7F4F8F4F9F4FAB
:100BD000089557FD9058440F551F59F05F3F71F02D
:100BE0004795880F97FB991F61F09F3F79F0879594
:100BF0000895121613061406551FF2CF4695F1DF1D
:100C000008C0161617061806991FF1CF86957105AC
:100C1000610508940895E894BB2766277727CB01E0
:100C200097F9089566D008F48FEF08950BD0C0CFE0
:100C3000B1DF28F0B6DF18F0952309F0A2CFA7CFD7
:100C40001124EACFC6DFA0F3959FD1F3950F50E0B2
:100C5000551F629FF001729FBB27F00DB11D639F6E
:100C6000AA27F00DB11DAA1F649F6627B00DA11D14
:100C7000661F829F2227B00DA11D621F739FB00DBA
:100C8000A11D621F839FA00D611D221F749F33272A
:100C9000A00D611D231F849F600D211D822F762FC3
:100CA0006A2F11249F5750408AF0E1F088234AF0C0
:100CB000EE0FFF1FBB1F661F771F881F915050400C
:100CC000A9F79E3F510570F05CCFA6CF5F3FECF3D4
:100CD000983EDCF3869577956795B795F795E795F8
:100CE0009F5FC1F7FE2B880F911D9695879597F909
:100CF0000895990F0008550FAA0BE0E8FEEF1616AD
:100D00001706E807F907C0F012161306E407F507FF
:100D100098F0621B730B840B950B39F40A2661F073
:100D2000232B242B252B21F408950A2609F4A14016
:100D3000A6958FEF811D811D0895629FD001739F3D
:100D4000F001829FE00DF11D649FE00DF11D929F67
:100D5000F00D839FF00D749FF00D659FF00D9927A6
:100D6000729FB00DE11DF91F639FB00DE11DF91FCA
:100D7000BD01CF0111240895991B79E004C0991F8A
:100D8000961708F0961B881F7A95C9F780950895E5
:100D9000AA1BBB1B51E107C0AA1FBB1FA617B707A1
:100DA00010F0A61BB70B881F991F5A95A9F78095BD
:100DB0009095BC01CD010895A1E21A2EAA1BBB1B80
:100DC000FD010DC0AA1FBB1FEE1FFF1FA217B30717
:100DD000E407F50720F0A21BB30BE40BF50B661F2D
:100DE000771F881F991F1A9469F7609570958095F1
:100DF00090959B01AC01BD01CF010895F894FFCF00
:100E00003031323334353637383900566F6C7461CF
:100E10006765204D6F64650020566F6C74005465E3
:100E20006D7065726174757265204D6F6465002028
:040E30004300010179
:00000001FF
